{
    "nttfw" : {
        "_info" : {
            "comment" : "",
            "filling-rpc-server" : "evm version 1.10.25-stable-69568c55",
            "filling-tool-version" : "retesteth-0.2.2-testinfo+commit.766b4629.Linux.g++",
            "generatedTestHash" : "682d204267cf3a3909bf22c063f2c9cde06a917d56f3666bad7ff4c724b3676b",
            "labels" : {
                "0" : "empty"
            },
            "lllcversion" : "Error getting LLLC Version",
            "solidity" : "Error getting solc Version",
            "source" : "tmp/micro/jump_aroundFiller.yml",
            "sourceHash" : "cadfd8a7ee22cbefac3a420cc4c762ca1a3a38ae3346407bd31694acff16c78e"
        },
        "env" : {
            "currentBaseFee" : "0x01",
            "currentCoinbase" : "0xa94f5374fce5edbc8e2a8697c15331677e6ebf0b",
            "currentDifficulty" : "0x01",
            "currentGasLimit" : "0x3b9aca00",
            "currentNumber" : "0x01",
            "currentRandom" : "0x0000000000000000000000000000000000000000000000000000000000000001",
            "currentTimestamp" : "0x61a8d289",
            "previousHash" : "0x5e20a0453cecd065ea59c37ac63e079ee08998b6045136a8ce6635c7912ec0b6"
        },
        "post" : {
            "Experimental" : [
                {
                    "hash" : "0x51a20eb8dbdec5af48eeecca9e38acb6006fe28733f8649500092464fe6a6364",
                    "indexes" : {
                        "data" : 0,
                        "gas" : 0,
                        "value" : 0
                    },
                    "logs" : "0x1dcc4de8dec75d7aab85b567b6ccd41ad312451b948a7413f0a142fd40d49347",
                    "txbytes" : "0xf8618001843b9aca0094be7c43a58000000000000000000000000000000180801ca0999ee855b1d5325fe79efbc40ad560f9ebabbbb97e72e1a4e9cf7e4b8ba34765a06392df208ed06b901f2997995c138bfa06ae8b1a26c15e8aff52cad68f913e85"
                }
            ]
        },
        "pre" : {
            "0xa94f5374fce5edbc8e2a8697c15331677e6ebf0b" : {
                "balance" : "0x3b9aca00",
                "code" : "0x",
                "nonce" : "0x00",
                "storage" : {
                }
            },
            "0xbe7c43a580000000000000000000000000000001" : {
                "balance" : "0x00",
                "code" : "ef0001010008020002006a25d50408000000800003000000037f00000000000000000000000000000000000000000000000000000000000000306000537f0000000000000000000000000000000000000000000000000000000000003001600153610100600e6000c061040060006002376108006000610402d3e300016104006002f360016104046000c2604060026001c260406102026041c2c581014101000040c441010101810140c301010101810140604060016002c160406041610202c1604060826001c260406102826041c2c581014101000040c441010101810140c301010101810140604060016082c160406041610282c160406101026001c260406103026041c2c581014101000040c441010101810140c30101010181014060406001610102c160406041610302c160406101826001c260406103826041c2c581014101000040c441010101810140c30101010181014060406001610182c160406041610382c160016104066000c2604060026001c260406101026041c2c581014101000040c441010101810140c301010101810140604060016002c160406041610102c1604060826001c260406101826041c2c581014101000040c441010101810140c301010101810140604060016082c160406041610182c160016104086000c260406102026001c260406103026041c2c581014101000040c441010101810140c30101010181014060406001610202c160406041610302c160406102826001c260406103826041c2c581014101000040c441010101810140c30101010181014060406001610282c160406041610382c1600161040a6000c2604060026001c2604060826041c2c581014101000040c441010101810140c301010101810140604060016002c1604060416082c1600161040c6000c260406101026001c260406101826041c2c581014101000040c441010101810140c30101010181014060406001610102c160406041610182c1600161040e6000c260406102026001c260406102826041c2c581014101000040c441010101810140c30101010181014060406001610202c160406041610282c160016104106000c260406103026001c260406103826041c2c581014101000040c441010101810140c30101010181014060406001610302c160406041610382c160016104126000c2602060026001c2602060426021c2c541012101000020c421010101410120c301010101410120602060016002c1602060216042c160016104146000c2602060826001c2602060c26021c2c541012101000020c421010101410120c301010101410120602060016082c16020602160c2c160016104166000c260206101026001c260206101426021c2c541012101000020c421010101410120c30101010141012060206001610102c160206021610142c160016104186000c260206101826001c260206101c26021c2c541012101000020c421010101410120c30101010141012060206001610182c1602060216101c2c1600161041a6000c260206102026001c260206102426021c2c541012101000020c421010101410120c30101010141012060206001610202c160206021610242c1600161041c6000c260206102826001c260206102c26021c2c541012101000020c421010101410120c30101010141012060206001610282c1602060216102c2c1600161041e6000c260206103026001c260206103426021c2c541012101000020c421010101410120c30101010141012060206001610302c160206021610342c160016104206000c260206103826001c260206103c26021c2c541012101000020c421010101410120c30101010141012060206001610382c1602060216103c2c160016104226000c2601060026001c2601060226011c2c521011101000010c411010101210110c301010101210110601060016002c1601060116022c160016104246000c2601060426001c2601060626011c2c521011101000010c411010101210110c301010101210110601060016042c1601060116062c160016104266000c2601060826001c2601060a26011c2c521011101000010c411010101210110c301010101210110601060016082c16010601160a2c160016104286000c2601060c26001c2601060e26011c2c521011101000010c411010101210110c3010101012101106010600160c2c16010601160e2c1600161042a6000c260106101026001c260106101226011c2c521011101000010c411010101210110c30101010121011060106001610102c160106011610122c1600161042c6000c260106101426001c260106101626011c2c521011101000010c411010101210110c30101010121011060106001610142c160106011610162c1600161042e6000c260106101826001c260106101a26011c2c521011101000010c411010101210110c30101010121011060106001610182c1601060116101a2c160016104306000c260106101c26001c260106101e26011c2c521011101000010c411010101210110c301010101210110601060016101c2c1601060116101e2c160016104326000c260106102026001c260106102226011c2c521011101000010c411010101210110c30101010121011060106001610202c160106011610222c160016104346000c260106102426001c260106102626011c2c521011101000010c411010101210110c30101010121011060106001610242c160106011610262c160016104366000c260106102826001c260106102a26011c2c521011101000010c411010101210110c30101010121011060106001610282c1601060116102a2c160016104386000c260106102c26001c260106102e26011c2c521011101000010c411010101210110c301010101210110601060016102c2c1601060116102e2c1600161043a6000c260106103026001c260106103226011c2c521011101000010c411010101210110c30101010121011060106001610302c160106011610322c1600161043c6000c260106103426001c260106103626011c2c521011101000010c411010101210110c30101010121011060106001610342c160106011610362c1600161043e6000c260106103826001c260106103a26011c2c521011101000010c411010101210110c30101010121011060106001610382c1601060116103a2c160016104406000c260106103c26001c260106103e26011c2c521011101000010c411010101210110c301010101210110601060016103c2c1601060116103e2c160016104426000c2600860026001c2600860126009c2c511010901000008c409010101110108c301010101110108600860016002c1600860096012c160016104446000c2600860226001c2600860326009c2c511010901000008c409010101110108c301010101110108600860016022c1600860096032c160016104466000c2600860426001c2600860526009c2c511010901000008c409010101110108c301010101110108600860016042c1600860096052c160016104486000c2600860626001c2600860726009c2c511010901000008c409010101110108c301010101110108600860016062c1600860096072c1600161044a6000c2600860826001c2600860926009c2c511010901000008c409010101110108c301010101110108600860016082c1600860096092c1600161044c6000c2600860a26001c2600860b26009c2c511010901000008c409010101110108c3010101011101086008600160a2c16008600960b2c1600161044e6000c2600860c26001c2600860d26009c2c511010901000008c409010101110108c3010101011101086008600160c2c16008600960d2c160016104506000c2600860e26001c2600860f26009c2c511010901000008c409010101110108c3010101011101086008600160e2c16008600960f2c160016104526000c260086101026001c260086101126009c2c511010901000008c409010101110108c30101010111010860086001610102c160086009610112c160016104546000c260086101226001c260086101326009c2c511010901000008c409010101110108c30101010111010860086001610122c160086009610132c160016104566000c260086101426001c260086101526009c2c511010901000008c409010101110108c30101010111010860086001610142c160086009610152c160016104586000c260086101626001c260086101726009c2c511010901000008c409010101110108c30101010111010860086001610162c160086009610172c1600161045a6000c260086101826001c260086101926009c2c511010901000008c409010101110108c30101010111010860086001610182c160086009610192c1600161045c6000c260086101a26001c260086101b26009c2c511010901000008c409010101110108c301010101110108600860016101a2c1600860096101b2c1600161045e6000c260086101c26001c260086101d26009c2c511010901000008c409010101110108c301010101110108600860016101c2c1600860096101d2c160016104606000c260086101e26001c260086101f26009c2c511010901000008c409010101110108c301010101110108600860016101e2c1600860096101f2c160016104626000c260086102026001c260086102126009c2c511010901000008c409010101110108c30101010111010860086001610202c160086009610212c160016104646000c260086102226001c260086102326009c2c511010901000008c409010101110108c30101010111010860086001610222c160086009610232c160016104666000c260086102426001c260086102526009c2c511010901000008c409010101110108c30101010111010860086001610242c160086009610252c160016104686000c260086102626001c260086102726009c2c511010901000008c409010101110108c30101010111010860086001610262c160086009610272c1600161046a6000c260086102826001c260086102926009c2c511010901000008c409010101110108c30101010111010860086001610282c160086009610292c1600161046c6000c260086102a26001c260086102b26009c2c511010901000008c409010101110108c301010101110108600860016102a2c1600860096102b2c1600161046e6000c260086102c26001c260086102d26009c2c511010901000008c409010101110108c301010101110108600860016102c2c1600860096102d2c160016104706000c260086102e26001c260086102f26009c2c511010901000008c409010101110108c301010101110108600860016102e2c1600860096102f2c160016104726000c260086103026001c260086103126009c2c511010901000008c409010101110108c30101010111010860086001610302c160086009610312c160016104746000c260086103226001c260086103326009c2c511010901000008c409010101110108c30101010111010860086001610322c160086009610332c160016104766000c260086103426001c260086103526009c2c511010901000008c409010101110108c30101010111010860086001610342c160086009610352c160016104786000c260086103626001c260086103726009c2c511010901000008c409010101110108c30101010111010860086001610362c160086009610372c1600161047a6000c260086103826001c260086103926009c2c511010901000008c409010101110108c30101010111010860086001610382c160086009610392c1600161047c6000c260086103a26001c260086103b26009c2c511010901000008c409010101110108c301010101110108600860016103a2c1600860096103b2c1600161047e6000c260086103c26001c260086103d26009c2c511010901000008c409010101110108c301010101110108600860016103c2c1600860096103d2c160016104806000c260086103e26001c260086103f26009c2c511010901000008c409010101110108c301010101110108600860016103e2c1600860096103f2c160016104826000c2600460026001c26004600a6005c2c509010501000004c405010101090104c301010101090104600460016002c160046005600ac160016104846000c2600460126001c26004601a6005c2c509010501000004c405010101090104c301010101090104600460016012c160046005601ac160016104866000c2600460226001c26004602a6005c2c509010501000004c405010101090104c301010101090104600460016022c160046005602ac160016104886000c2600460326001c26004603a6005c2c509010501000004c405010101090104c301010101090104600460016032c160046005603ac1600161048a6000c2600460426001c26004604a6005c2c509010501000004c405010101090104c301010101090104600460016042c160046005604ac1600161048c6000c2600460526001c26004605a6005c2c509010501000004c405010101090104c301010101090104600460016052c160046005605ac1600161048e6000c2600460626001c26004606a6005c2c509010501000004c405010101090104c301010101090104600460016062c160046005606ac160016104906000c2600460726001c26004607a6005c2c509010501000004c405010101090104c301010101090104600460016072c160046005607ac160016104926000c2600460826001c26004608a6005c2c509010501000004c405010101090104c301010101090104600460016082c160046005608ac160016104946000c2600460926001c26004609a6005c2c509010501000004c405010101090104c301010101090104600460016092c160046005609ac160016104966000c2600460a26001c2600460aa6005c2c509010501000004c405010101090104c3010101010901046004600160a2c16004600560aac160016104986000c2600460b26001c2600460ba6005c2c509010501000004c405010101090104c3010101010901046004600160b2c16004600560bac1600161049a6000c2600460c26001c2600460ca6005c2c509010501000004c405010101090104c3010101010901046004600160c2c16004600560cac1600161049c6000c2600460d26001c2600460da6005c2c509010501000004c405010101090104c3010101010901046004600160d2c16004600560dac1600161049e6000c2600460e26001c2600460ea6005c2c509010501000004c405010101090104c3010101010901046004600160e2c16004600560eac160016104a06000c2600460f26001c2600460fa6005c2c509010501000004c405010101090104c3010101010901046004600160f2c16004600560fac160016104a26000c260046101026001c2600461010a6005c2c509010501000004c405010101090104c30101010109010460046001610102c16004600561010ac160016104a46000c260046101126001c2600461011a6005c2c509010501000004c405010101090104c30101010109010460046001610112c16004600561011ac160016104a66000c260046101226001c2600461012a6005c2c509010501000004c405010101090104c30101010109010460046001610122c16004600561012ac160016104a86000c260046101326001c2600461013a6005c2c509010501000004c405010101090104c30101010109010460046001610132c16004600561013ac160016104aa6000c260046101426001c2600461014a6005c2c509010501000004c405010101090104c30101010109010460046001610142c16004600561014ac160016104ac6000c260046101526001c2600461015a6005c2c509010501000004c405010101090104c30101010109010460046001610152c16004600561015ac160016104ae6000c260046101626001c2600461016a6005c2c509010501000004c405010101090104c30101010109010460046001610162c16004600561016ac160016104b06000c260046101726001c2600461017a6005c2c509010501000004c405010101090104c30101010109010460046001610172c16004600561017ac160016104b26000c260046101826001c2600461018a6005c2c509010501000004c405010101090104c30101010109010460046001610182c16004600561018ac160016104b46000c260046101926001c2600461019a6005c2c509010501000004c405010101090104c30101010109010460046001610192c16004600561019ac160016104b66000c260046101a26001c260046101aa6005c2c509010501000004c405010101090104c301010101090104600460016101a2c1600460056101aac160016104b86000c260046101b26001c260046101ba6005c2c509010501000004c405010101090104c301010101090104600460016101b2c1600460056101bac160016104ba6000c260046101c26001c260046101ca6005c2c509010501000004c405010101090104c301010101090104600460016101c2c1600460056101cac160016104bc6000c260046101d26001c260046101da6005c2c509010501000004c405010101090104c301010101090104600460016101d2c1600460056101dac160016104be6000c260046101e26001c260046101ea6005c2c509010501000004c405010101090104c301010101090104600460016101e2c1600460056101eac160016104c06000c260046101f26001c260046101fa6005c2c509010501000004c405010101090104c301010101090104600460016101f2c1600460056101fac160016104c26000c260046102026001c2600461020a6005c2c509010501000004c405010101090104c30101010109010460046001610202c16004600561020ac160016104c46000c260046102126001c2600461021a6005c2c509010501000004c405010101090104c30101010109010460046001610212c16004600561021ac160016104c66000c260046102226001c2600461022a6005c2c509010501000004c405010101090104c30101010109010460046001610222c16004600561022ac160016104c86000c260046102326001c2600461023a6005c2c509010501000004c405010101090104c30101010109010460046001610232c16004600561023ac160016104ca6000c260046102426001c2600461024a6005c2c509010501000004c405010101090104c30101010109010460046001610242c16004600561024ac160016104cc6000c260046102526001c2600461025a6005c2c509010501000004c405010101090104c30101010109010460046001610252c16004600561025ac160016104ce6000c260046102626001c2600461026a6005c2c509010501000004c405010101090104c30101010109010460046001610262c16004600561026ac160016104d06000c260046102726001c2600461027a6005c2c509010501000004c405010101090104c30101010109010460046001610272c16004600561027ac160016104d26000c260046102826001c2600461028a6005c2c509010501000004c405010101090104c30101010109010460046001610282c16004600561028ac160016104d46000c260046102926001c2600461029a6005c2c509010501000004c405010101090104c30101010109010460046001610292c16004600561029ac160016104d66000c260046102a26001c260046102aa6005c2c509010501000004c405010101090104c301010101090104600460016102a2c1600460056102aac160016104d86000c260046102b26001c260046102ba6005c2c509010501000004c405010101090104c301010101090104600460016102b2c1600460056102bac160016104da6000c260046102c26001c260046102ca6005c2c509010501000004c405010101090104c301010101090104600460016102c2c1600460056102cac160016104dc6000c260046102d26001c260046102da6005c2c509010501000004c405010101090104c301010101090104600460016102d2c1600460056102dac160016104de6000c260046102e26001c260046102ea6005c2c509010501000004c405010101090104c301010101090104600460016102e2c1600460056102eac160016104e06000c260046102f26001c260046102fa6005c2c509010501000004c405010101090104c301010101090104600460016102f2c1600460056102fac160016104e26000c260046103026001c2600461030a6005c2c509010501000004c405010101090104c30101010109010460046001610302c16004600561030ac160016104e46000c260046103126001c2600461031a6005c2c509010501000004c405010101090104c30101010109010460046001610312c16004600561031ac160016104e66000c260046103226001c2600461032a6005c2c509010501000004c405010101090104c30101010109010460046001610322c16004600561032ac160016104e86000c260046103326001c2600461033a6005c2c509010501000004c405010101090104c30101010109010460046001610332c16004600561033ac160016104ea6000c260046103426001c2600461034a6005c2c509010501000004c405010101090104c30101010109010460046001610342c16004600561034ac160016104ec6000c260046103526001c2600461035a6005c2c509010501000004c405010101090104c30101010109010460046001610352c16004600561035ac160016104ee6000c260046103626001c2600461036a6005c2c509010501000004c405010101090104c30101010109010460046001610362c16004600561036ac160016104f06000c260046103726001c2600461037a6005c2c509010501000004c405010101090104c30101010109010460046001610372c16004600561037ac160016104f26000c260046103826001c2600461038a6005c2c509010501000004c405010101090104c30101010109010460046001610382c16004600561038ac160016104f46000c260046103926001c2600461039a6005c2c509010501000004c405010101090104c30101010109010460046001610392c16004600561039ac160016104f66000c260046103a26001c260046103aa6005c2c509010501000004c405010101090104c301010101090104600460016103a2c1600460056103aac160016104f86000c260046103b26001c260046103ba6005c2c509010501000004c405010101090104c301010101090104600460016103b2c1600460056103bac160016104fa6000c260046103c26001c260046103ca6005c2c509010501000004c405010101090104c301010101090104600460016103c2c1600460056103cac160016104fc6000c260046103d26001c260046103da6005c2c509010501000004c405010101090104c301010101090104600460016103d2c1600460056103dac160016104fe6000c260046103e26001c260046103ea6005c2c509010501000004c405010101090104c301010101090104600460016103e2c1600460056103eac160016105006000c260046103f26001c260046103fa6005c2c509010501000004c405010101090104c301010101090104600460016103f2c1600460056103fac1c4ff00ff00ff0001604060026041c2c301044104ff0010c302044304ff0010c303044204ff0010c304044404ff001060106105026061c2c341026101ff0010c342026101ff0010c561010202410120c402020102610120c301020102610120c341040104ff0010c343040204ff0010c342040304ff0010c344040404ff0010604060416002c1604060826041c2c301044104ff0010c302044304ff0010c303044204ff0010c304044404ff001060106105226061c2c341026101ff0010c342026101ff0010c561010202410120c402020102610120c301020102610120c341040104ff0010c343040204ff0010c342040304ff0010c344040404ff0010604060416082c160406101026041c2c301044104ff0010c302044304ff0010c303044204ff0010c304044404ff001060106105426061c2c341026101ff0010c342026101ff0010c561010202410120c402020102610120c301020102610120c341040104ff0010c343040204ff0010c342040304ff0010c344040404ff001060406041610102c160406101826041c2c301044104ff0010c302044304ff0010c303044204ff0010c304044404ff001060106105626061c2c341026101ff0010c342026101ff0010c561010202410120c402020102610120c301020102610120c341040104ff0010c343040204ff0010c342040304ff0010c344040404ff001060406041610182c160406102026041c2c301044104ff0010c302044304ff0010c303044204ff0010c304044404ff001060106105826061c2c341026101ff0010c342026101ff0010c561010202410120c402020102610120c301020102610120c341040104ff0010c343040204ff0010c342040304ff0010c344040404ff001060406041610202c160406102826041c2c301044104ff0010c302044304ff0010c303044204ff0010c304044404ff001060106105a26061c2c341026101ff0010c342026101ff0010c561010202410120c402020102610120c301020102610120c341040104ff0010c343040204ff0010c342040304ff0010c344040404ff001060406041610282c160406103026041c2c301044104ff0010c302044304ff0010c303044204ff0010c304044404ff001060106105c26061c2c341026101ff0010c342026101ff0010c561010202410120c402020102610120c301020102610120c341040104ff0010c343040204ff0010c342040304ff0010c344040404ff001060406041610302c160406103826041c2c301044104ff0010c302044304ff0010c303044204ff0010c304044404ff001060106105e26061c2c341026101ff0010c342026101ff0010c561010202410120c402020102610120c301020102610120c341040104ff0010c343040204ff0010c342040304ff0010c344040404ff001060406041610382c1604060026001c260206106026041c2c561010202410120c402020102610120c301020102610120604060016002c1604060826001c260206106426041c2c561010202410120c402020102610120c301020102610120604060016082c160406101026001c260206106826041c2c561010202410120c402020102610120c30102010261012060406001610102c160406101826001c260206106c26041c2c561010202410120c402020102610120c30102010261012060406001610182c160406102026001c260206107026041c2c561010202410120c402020102610120c30102010261012060406001610202c160406102826001c260206107426041c2c561010202410120c402020102610120c30102010261012060406001610282c160406103026001c260206107826041c2c561010202410120c402020102610120c30102010261012060406001610302c160406103826001c260206107c26041c2c561010202410120c402020102610120c30102010261012060406001610382c1e4000105c70fcb1be716681026051902d2066e04bc191d23860db0222b261021dc11ef19a1139f193d2aba1372197023012c4c25c025b212d5023324620ab80bbe03e810e02fb00c13246e1320093e24162d2b1dfe073d008c066325312b68109f1c232ad32380243b031603bb2b6f090f254612ee0c3f0e80270b2bdb0de11d3c0220169f2eae09a42c03000924e72e2129781f4b1c841b2e056509dd105122010b1514fe11020082095c11640ce020942f8b2655089513cb2c480ea41687033b0cd40b4113e427d82824232823582d2829612a6d014e097a1218167b2b15112429220e7b0e6e1bc62e9e0d3609f41f7a131a18ea25560f5c15a62f700d830e35067f06f105921dd30a9014ab1cb721cd23b400a02ffe1eac087620b61cca2f900d242968233a0fd9087e1eed0b1f1ec31bb625252a35131f090113b20fd525ac0f911cd801dc0dcb01a41a4a08820608243900f324492d620c40144722b926a2238f1ae227b3065e2b800b44203127380caf25830b990f8a1b2d0db626bf24d01d971fd206012f0f21890a76139b02211cec03f929a11c252a61214e0bfa2fe62bec0b2b09b11c6d0b60164201621d0401862cfc0ec2210801ba096113ed2bd6137029ba036b0ec41c6e2c1713e010bc1786245609850e3e277625fb1797268b2e4e1f102a9f07782e14200126b41544235104b7149d04902e6d12250429085f0f750b1727b200972e52062b09c9171200340c66052b0ace0d0817a7190f02a50d751d55125a13c12f412ad828001330147924990c3710490d9a03131aa52c0f2fc700f12c160dcc2c8c1778285d1c700b1c0d6e1f8d03cf1631226c008e04510ff001a50e12184d121018440cbf21f116fe12ae15da0bd5107501f8025d270307f12063287f20da2c342b1b2ab2153b0e7e18341b261546206d01d42ec52e83180813542e7129411809191b0e3b15270038238214561a6806a6283e2d730ded14c320161ccd10e427882df713d70cbe2b0309281a3b07b5172503fa0dba2bf01d4c1e8e15a1128d21342f6e15501ea01abc20ed1e49041a17e60eea258604a616f408e907ef14d5206a20802f650acf01c518ed01a20ebc153512a6050d1d8009390733242b101300da0b5c229722380b4228f407a20803098f180302400f7b07421d6f0cf32e570b6d015b0ead07b729640bc100ae2d2e254f16ec0a5f199a05e82ea3150728ea237f1e741b0827f818e605cb00312b1205d109c429d21736057c2ebc2b8703b40fd10e9004871766028c1686182e2eda0fb00fed0b670eb218b81c0f29c707aa1f3723002f59257d1bc104b017ea26060f74055017e714b10bee1a9323ce06d3171f11510efa148902ab099b21b92fc1263a247d196b061e2cbe18500df21f710c4e05270fce2d3c07a61f1f081e04582bdf20122c6701b907222493239e11890e7c0ca62b910d791ba804440d1f0c851f5821a328792e3108142a941134015a0c5b20411d1917ef2f842de52a0b107e1f732d9d22d91f7e1c3c2b3f2e4b0dbb233317691add1f9006002948100726842d3421fc055d0ba60d782eaa11ba077412772b49074a1ba627c302cc278d1ad906a909922cd301a027f016c21e2d225a06dc10312233208813c71050214c2a13099d08e31f5616151a25189e2dbe0f3100d418b323d70ad11666049815842b0612fc2b9c2b962a5c2e4103f61d541cc52ad20e171470209b2fbd272d1e2b16cc0c8005ff2564003c1e6827302a78162c0c0f19361cee0f871c9e216109e00bf016d515d42e6513ee04e701fa2a911698258f08a40d0a2335049a25291a9b224a286b0d50048d0a0f28d501a92e792778017911e201770654040e2c6617c5104717cc08b70af02f4005f2086722f21fea138a2fed1e01142b293105220b4e0e462eaf0f6b266a19c71cb61c0604e0098a208a195c18ba279d165c2ad40799040522f11a23289d0e281aa9132a123e02001e372c1f24ad2f12070c057b18331bbc0196296a1b6d2f6f22d2270e1f120d4121101f761cd022392d9306c9119316282073247e2d8515e911fd0a8100b41fd71463058100cc1a7c264e08060540241f01cf22b20f8d05bc117b1b830bc904d423d012610a282be01283109b04ca1a732e9509380bd414602e3f28692dbf14f82e031dcc0a3e1af722e11db51bf22fc2212121ab09451c862a8b23ef033a13b3169d22531a0f2987240805e21e7e1647126f2d1218f52c73125526df2e60270c17fa2274115b22a71c12289e070a29ee0636113b04c7091e0b821aac0a4d119e0371016d287a03f71c521a5609b5038800182aa62b012d9b03d42d5713da1e131457202f034c1baf0c951f5021040a2314a919e302370b7d057e0a491b1c0b810ca02edc0eb91d0a0f681ffe1a6715e42b1024422786226923d1182819f317c6223114fa209c215805020df424f107e5127a0c9d06aa0f5913be0c52232c1ef92ffa079021762cb42d001596003200d802ff0edd1039275c04ff2ca0259114322f440c2c276006e30ee706c6054616c820e4114705fa069e273428b52557152312d4048823eb1e5b0b182653106224361c9311d51c2b290a03b01d5f1b5a21ac1dc81ae30bcc1629152204e329031b6607f32bf1181428a71ff02fb928cf0f000a9812e20b0c110004d9111a0d7b0ffe0be5169525ae2bba1da822072277295c1e692cf70a4202122a382474248507fe230c261d22fd2f760cc40ed30739197111ab10cd01c9000822830eae1f871126271d03d60a21036f25d728942e0b1c0317af213020fb0625175112292490178a04062e2f297021142c97270416122f5702882f6b09031f402cea267f24c80b0b261a2ba100151951",
                "nonce" : "0x00",
                "storage" : {
                }
            }
        },
        "transaction" : {
            "data" : [
                "13d01f9a0cb3129901032a76071e25a315bb151d0e182b9901260c9a068d0d8606f913f62ee0263e1d1c038a0afb1676210515c215550f2424c8089a05a013962deb142928382ee927bb02fa264317040b441a4d23a90d0c058f053713591b64193a0718272e1e891e4402d92b0d1466092d22f10c44095e08512803176a0614253f234412262e7b2f3304ae28372427261515792c800fd129362bec21c602541dd8145317aa28b60ad10ae01cb41863044519f02c841a460b0617d20bc72f8f1d5323de1f990826187b04da1f9209f2127010ef2ab8017008201d4f2d0309d8042222e1030516cc2c1802b815bc2884067329ca0df60528164411e22a6d094627f917e4013e176a14ca15b6149c157622e7153f137d2980079517e227c516e42719294d03970e4215a32f1a0c8412590b9d19fd0eb92ecd17cf0709127f01190ad603801982115407e722da027e140f26df0879008a0eba09640254138d002b0afb242c0169170511932f3e10a205fa298a20590f542d332adc085022b61734128b19a70fa2220b2c780855038e0f7d2fa827262e390ad61d922914090e1ed902f22cfc1c8d02a5122c0efb108d1c7828202d3115c601f0141f094328f92d8614282ccd07d2169e1c5e11a21059068e2e5604352b96264b1b87174f0206205519341b6329b829b20b3f1fc8084a23992db62f5f27af292018ee010c067e2d3028ea0672151d1f4a009e2a0d1df51406017a12d808c617a019520d490dcd04cb236029e1181815d706ad1506285200772ac81ce604411f76150a00a917eb2850198003431d71256f1f980ce90a2800fd06400f4d13cb0a312bc626f30dd614751f6024562b6c207e13f9159c1014189e12e32a8729580c312a920a06035e0e6211be124f2dec1da722e52cb91d012ead2f702f762b6d0f351a6809aa15e811f81489283e25070e5528ea178813fc069e275421f80b881f0e26572ae80701059813760abb2d6815932f462cbe24932be61a8200592d29144720b32682098b25271b170d8a096d1c1008ac1f211fb20a741fdb125c05f61b4e19a0087f176c22461f2b16441f2a2391138a18f50e8524292bb715190ecc028a1ace0b931558094b241f2194017a1a23285c143c2d380ab210900e6927ec2e0f04b0024d006a07b900540e1b297e117e13d5204a215e24ec1b9800c309402719148411781d2d0b930a691b9e1b6d2be21098227b0f9e0bf9090e20911a5324f228e51a011a6106a9157024dd25d127062b2009222a270d5a0cad26461a1006f0259b1f110e2e05712a3d298c2ca72bbf117617aa118f22ef0c8b276528f218200e20074d2066033b02a62aa90b12209b20e5114f08b100a12f0817e3041527fc26aa18ab2c1b09031c9707ca1eb21dda0db80f4720c62134194d2c1504db248f1f2c09440b001c3c"
            ],
            "gasLimit" : [
                "0x3b9aca00"
            ],
            "gasPrice" : "0x01",
            "nonce" : "0x00",
            "secretKey" : "0x45a915e4d060149eb4365960e6a7a45f334393093061116b197e3240065ff2d8",
            "sender" : "0xa94f5374fce5edbc8e2a8697c15331677e6ebf0b",
            "to" : "0xbe7c43a580000000000000000000000000000001",
            "value" : [
                "0x00"
            ]
        }
    }
}