{
    "poseidon_vec" : {
        "_info" : {
            "comment" : "",
            "filling-rpc-server" : "evm version 1.10.25-stable-69568c55",
            "filling-tool-version" : "retesteth-0.2.2-testinfo+commit.766b4629.Linux.g++",
            "generatedTestHash" : "682d204267cf3a3909bf22c063f2c9cde06a917d56f3666bad7ff4c724b3676b",
            "labels" : {
                "0" : "empty"
            },
            "lllcversion" : "Error getting LLLC Version",
            "solidity" : "Error getting solc Version",
            "source" : "tmp/micro/jump_aroundFiller.yml",
            "sourceHash" : "cadfd8a7ee22cbefac3a420cc4c762ca1a3a38ae3346407bd31694acff16c78e"
        },
        "env" : {
            "currentBaseFee" : "0x01",
            "currentCoinbase" : "0xa94f5374fce5edbc8e2a8697c15331677e6ebf0b",
            "currentDifficulty" : "0x01",
            "currentGasLimit" : "0x3b9aca00",
            "currentNumber" : "0x01",
            "currentRandom" : "0x0000000000000000000000000000000000000000000000000000000000000001",
            "currentTimestamp" : "0x61a8d289",
            "previousHash" : "0x5e20a0453cecd065ea59c37ac63e079ee08998b6045136a8ce6635c7912ec0b6"
        },
        "post" : {
            "Experimental" : [
                {
                    "hash" : "0x17bfb8320dbcd3058180c9b9eef355a0b2cf30302f03935260bba9163235cb00",
                    "indexes" : {
                        "data" : 0,
                        "gas" : 0,
                        "value" : 0
                    },
                    "logs" : "0x1dcc4de8dec75d7aab85b567b6ccd41ad312451b948a7413f0a142fd40d49347",
                    "txbytes" : "0xf8618001843b9aca0094be7c43a58000000000000000000000000000000180801ca0999ee855b1d5325fe79efbc40ad560f9ebabbbb97e72e1a4e9cf7e4b8ba34765a06392df208ed06b901f2997995c138bfa06ae8b1a26c15e8aff52cad68f913e85"
                }
            ]
        },
        "pre" : {
            "0xa94f5374fce5edbc8e2a8697c15331677e6ebf0b" : {
                "balance" : "0x3b9aca00",
                "code" : "0x",
                "nonce" : "0x00",
                "storage" : {
                }
            },
            "0xbe7c43a580000000000000000000000000000001" : {
                "balance" : "0x00",
                "code" : "7f30644e72e131a029b85045b68181585d2833e84879b9709143e1f593f0000001600052601160fe6000c07f109b7f411ba0e4c9b2b70caf5c36a7b194be7c11ad24378bfedb68592ba8118b6020527f16ed41e13bb9c0c66ae119424fddbcbc9314dc9fdbdeea55d6c64543dc4903e06040527f2b90bba00fca0589f617e7dcbfe82e0df706ab640ceb247b791a93b74e36736d6060527f2969f27eed31a480b9c36c764379dbca2cc8fdd1415c3dded62940bcde0bd7716080527f2e2419f9ec02ec394c9871c832963dc1b89d743c8c7b964029b2311687b1fe2360a0527f101071f0032379b697315876690f053d148d4e109f5fb065c8aacc55a0f89bfa60c0527f143021ec686a3f330d5f9e654638065ce6cd79e28c5b3753326244ee65a1b1a760e0527f176cc029695ad02582a70eff08a6fd99d057e12e58e7d7b6b16cdfabc8ee2911610100527f19a3fc0a56702bf417ba7fee3802593fa644470307043f7773279cd71d25d5e061012052600960206000c260406000610140376002610140600dc27f0ee9a592ba9a9518d05986d656f40c2114c4993c11bb29938d21d47304cd8e6e610180527f00f1445235f2148c5986587169fc1bcd887b08d4d00868df5696fff40956e8646101a0527f08dff3487e8ac99e1f29a058d0fa80b930c728730b7ab36ce879f3890ecf73f56101c0527f2f27be690fdaee46c3ce28f7532b13c856c35342c84bda6e20966310fadc01d06101e0527f2b2ae1acf68b7b8d2416bebf3d4f6234b763fe04b8043ee48b8327bebca16cf2610200527f0319d062072bef7ecca5eac06f97d4d55952c175ab6b03eae64b44c7dbf11cfa610220527f28813dcaebaeaa828a376df87af4a63bc8b7bf27ad49c6298ef7b387bf28526d610240527f2727673b2ccbc903f181bf38e1c1d40d2033865200c352bc150928adddf9cb78610260527f234ec45ca27727c2e74abd2b2a1494cd6efbd43e340587d6b8fb9e31e65cc632610280527f15b52534031ae18f7f862cb2cf7cf760ab10a8150a337b1ccd99ff6e8797d4286102a0527f0dc8fad6d9e4b35f5ed9a3d186b79ce38e0e8a8d1b58b132d701d4eecf68d1f66102c0527f1bcd95ffc211fbca600f705fad3fb567ea4eb378f62e1fec97805518a47e4d9c6102e0527f10520b0ab721cadfe9eff81b016fc34dc76da36c2578937817cb978d069de559610300527f1f6d48149b8e7f7d9b257d8ed5fbbaf42932498075fed0ace88a9eb81f5627f6610320527f1d9655f652309014d29e00ef35a2089bfff8dc1c816f0dc9ca34bdb5460c8705610340527f04df5a56ff95bcafb051f7b1cd43a99ba731ff67e47032058fe3d4185697cc7d610360527f0672d995f8fff640151b3d290cedaf148690a10a8c8424a7f6ec282b6e4be828610380527f099952b414884454b21200d7ffafdd5f0c9a9dcc06f2708e9fc1d8209b5c75b96103a0527f052cba2255dfd00c7c483143ba8d469448e43586a9b4cd9183fd0e843a6b9fa66103c0527f0b8badee690adb8eb0bd74712b7999af82de55707251ad7716077cb93c464ddc6103e0527f119b1590f13307af5a1ee651020c07c749c15d60683a8050b963d0a8e4b2bdd1610400527f03150b7cd6d5d17b2529d36be0f67b832c4acfc884ef4ee5ce15be0bfb4a8d09610420527f2cc6182c5e14546e3cf1951f173912355374efb83d80898abe69cb317c9ea565610440527f005032551e6378c450cfe129a404b3764218cadedac14e2b92d2cd73111bf0f9610460527f233237e3289baa34bb147e972ebcb9516469c399fcc069fb88f9da2cc28276b5610480527f05c8f4f4ebd4a6e3c980d31674bfbe6323037f21b34ae5a4e80c2d4c24d602806104a0527f0a7b1db13042d396ba05d818a319f25252bcf35ef3aeed91ee1f09b2590fc65b6104c0527f2a73b71f9b210cf5b14296572c9d32dbf156e2b086ff47dc5df542365a404ec06104e0527f1ac9b0417abcc9a1935107e9ffc91dc3ec18f2c4dbe7f22976a760bb5c50c460610500527f12c0339ae08374823fabb076707ef479269f3e4d6cb104349015ee046dc93fc0610520527f0b7475b102a165ad7f5b18db4e1e704f52900aa3253baac68246682e56e9a28e610540527f037c2849e191ca3edb1c5e49f6e8b8917c843e379366f2ea32ab3aa88d7f8448610560527f05a6811f8556f014e92674661e217e9bd5206c5c93a07dc145fdb176a716346f610580527f29a795e7d98028946e947b75d54e9f044076e87a7b2883b47b675ef5f38bd66e6105a0527f20439a0c84b322eb45a3857afc18f5826e8c7382c8a1585c507be199981fd22f6105c0527f2e0ba8d94d9ecf4a94ec2050c7371ff1bb50f27799a84b6d4a2a6f2a0982c8876105e0527f143fd115ce08fb27ca38eb7cce822b4517822cd2109048d2e6d0ddcca17d71c8610600527f0c64cbecb1c734b857968dbbdcf813cdf8611659323dbcbfc84323623be9caf1610620527f028a305847c683f646fca925c163ff5ae74f348d62c2b670f1426cef9403da53610640527f2e4ef510ff0b6fda5fa940ab4c4380f26a6bcb64d89427b824d6755b5db9e30c610660527f0081c95bc43384e663d79270c956ce3b8925b4f6d033b078b96384f50579400e610680527f2ed5f0c91cbd9749187e2fade687e05ee2491b349c039a0bba8a9f4023a0bb386106a0527f30509991f88da3504bbf374ed5aae2f03448a22c76234c8c990f01f33a7352066106c0527f1c3f20fd55409a53221b7c4d49a356b9f0a1119fb2067b41a7529094424ec6ad6106e0527f10b4e7f3ab5df003049514459b6e18eec46bb2213e8e131e170887b47ddcb96c610700527f2a1982979c3ff7f43ddd543d891c2abddd80f804c077d775039aa3502e43adef610720527f1c74ee64f15e1db6feddbead56d6d55dba431ebc396c9af95cad0f1315bd5c91610740527f07533ec850ba7f98eab9303cace01b4b9e4f2e8b82708cfa9c2fe45a0ae146a0610760527f21576b438e500449a151e4eeaf17b154285c68f42d42c1808a11abf3764c0750610780527f2f17c0559b8fe79608ad5ca193d62f10bce8384c815f0906743d6930836d4a9e6107a0527f2d477e3862d07708a79e8aae946170bc9775a4201318474ae665b0b1b7e2730e6107c0527f162f5243967064c390e095577984f291afba2266c38f5abcd89be0f5b2747eab6107e0527f2b4cb233ede9ba48264ecd2c8ae50d1ad7a8596a87f29f8a7777a70092393311610800527f2c8fbcb2dd8573dc1dbaf8f4622854776db2eece6d85c4cf4254e7c35e03b07a610820527f1d6f347725e4816af2ff453f0cd56b199e1b61e9f601e9ade5e88db870949da9610840527f204b0c397f4ebe71ebc2d8b3df5b913df9e6ac02b68d31324cd49af5c4565529610860527f0c4cb9dc3c4fd8174f1149b3c63c3c2f9ecb827cd7dc25534ff8fb75bc79c502610880527f174ad61a1448c899a25416474f4930301e5c49475279e0639a616ddc45bc7b546108a0527f1a96177bcf4d8d89f759df4ec2f3cde2eaaa28c177cc0fa13a9816d49a38d2ef6108c0527f066d04b24331d71cd0ef8054bc60c4ff05202c126a233c1a8242ace360b8a30a6108e0527f2a4c4fc6ec0b0cf52195782871c6dd3b381cc65f72e02ad527037a62aa1bd804610900527f13ab2d136ccf37d447e9f2e14a7cedc95e727f8446f6d9d7e55afc01219fd649610920527f1121552fca26061619d24d843dc82769c1b04fcec26f55194c2e3e869acc6a9a610940527f00ef653322b13d6c889bc81715c37d77a6cd267d595c4a8909a5546c7c97cff1610960527f0e25483e45a665208b261d8ba74051e6400c776d652595d9845aca35d8a397d3610980527f29f536dcb9dd7682245264659e15d88e395ac3d4dde92d8c46448db979eeba896109a0527f2a56ef9f2c53febadfda33575dbdbd885a124e2780bbea170e456baace0fa5be6109c0527f1c8361c78eb5cf5decfb7a2d17b5c409f2ae2999a46762e8ee416240a8cb9af16109e0527f151aff5f38b20a0fc0473089aaf0206b83e8e68a764507bfd3d0ab4be74319c5610a00527f04c6187e41ed881dc1b239c88f7f9d43a9f52fc8c8b6cdd1e76e47615b51f100610a20527f13b37bd80f4d27fb10d84331f6fb6d534b81c61ed15776449e801b7ddc9c2967610a40527f01a5c536273c2d9df578bfbd32c17b7a2ce3664c2a52032c9321ceb1c4e8a8e4610a60527f2ab3561834ca73835ad05f5d7acb950b4a9a2c666b9726da832239065b7c3b02610a80527f1d4d8ec291e720db200fe6d686c0d613acaf6af4e95d3bf69f7ed516a597b646610aa0527f041294d2cc484d228f5784fe7919fd2bb925351240a04b711514c9c80b65af1d610ac0527f154ac98e01708c611c4fa715991f004898f57939d126e392042971dd90e81fc6610ae0527f0b339d8acca7d4f83eedd84093aef51050b3684c88f8b0b04524563bc6ea4da4610b00527f0955e49e6610c94254a4f84cfbab344598f0e71eaff4a7dd81ed95b50839c82e610b20527f06746a6156eba54426b9e22206f15abca9a6f41e6f535c6f3525401ea0654626610b40527f0f18f5a0ecd1423c496f3820c549c27838e5790e2bd0a196ac917c7ff32077fb610b60527f04f6eeca1751f7308ac59eff5beb261e4bb563583ede7bc92a738223d6f76e13610b80527f2b56973364c4c4f5c1a3ec4da3cdce038811eb116fb3e45bc1768d26fc0b3758610ba0527f123769dd49d5b054dcd76b89804b1bcb8e1392b385716a5d83feb65d437f29ef610bc0527f2147b424fc48c80a88ee52b91169aacea989f6446471150994257b2fb01c63e9610be0527f0fdc1f58548b85701a6c5505ea332a29647e6f34ad4243c2ea54ad897cebe54d610c00527f12373a8251fea004df68abcf0f7786d4bceff28c5dbbe0c3944f685cc0a0b1f2610c20527f21e4f4ea5f35f85bad7ea52ff742c9e8a642756b6af44203dd8a1f35c1a90035610c40527f16243916d69d2ca3dfb4722224d4c462b57366492f45e90d8a81934f1bc3b147610c60527f1efbe46dd7a578b4f66f9adbc88b4378abc21566e1a0453ca13a4159cac04ac2610c80527f07ea5e8537cf5dd08886020e23a7f387d468d5525be66f853b672cc96a88969a610ca0527f05a8c4f9968b8aa3b7b478a30f9a5b63650f19a75e7ce11ca9fe16c0b76c00bc610cc0527f20f057712cc21654fbfe59bd345e8dac3f7818c701b9c7882d9d57b72a32e83f610ce0527f04a12ededa9dfd689672f8c67fee31636dcd8e88d01d49019bd90b33eb33db69610d00527f27e88d8c15f37dcee44f1e5425a51decbd136ce5091a6767e49ec9544ccd101a610d20527f2feed17b84285ed9b8a5c8c5e95a41f66e096619a7703223176c41ee433de4d1610d40527f1ed7cc76edf45c7c404241420f729cf394e5942911312a0d6972b8bd53aff2b8610d60527f15742e99b9bfa323157ff8c586f5660eac6783476144cdcadf2874be45466b1a610d80527f1aac285387f65e82c895fc6887ddf40577107454c6ec0317284f033f27d0c785610da0527f25851c3c845d4790f9ddadbdb6057357832e2e7a49775f71ec75a96554d67c77610dc0527f15a5821565cc2ec2ce78457db197edf353b7ebba2c5523370ddccc3d9f146a67610de0527f2411d57a4813b9980efa7e31a1db5966dcf64f36044277502f15485f28c71727610e00527f002e6f8d6520cd4713e335b8c0b6d2e647e9a98e12f4cd2558828b5ef6cb4c9b610e20527f2ff7bc8f4380cde997da00b616b0fcd1af8f0e91e2fe1ed7398834609e0315d2610e40527f00b9831b948525595ee02724471bcd182e9521f6b7bb68f1e93be4febb0d3cbe610e60527f0a2f53768b8ebf6a86913b0e57c04e011ca408648a4743a87d77adbf0c9c3512610e80527f00248156142fd0373a479f91ff239e960f599ff7e94be69b7f2a290305e1198d610ea0527f171d5620b87bfb1328cf8c02ab3f0c9a397196aa6a542c2350eb512a2b2bcda9610ec0527f170a4f55536f7dc970087c7c10d6fad760c952172dd54dd99d1045e4ec34a808610ee0527f29aba33f799fe66c2ef3134aea04336ecc37e38c1cd211ba482eca17e2dbfae1610f00527f1e9bc179a4fdd758fdd1bb1945088d47e70d114a03f6a0e8b5ba650369e64973610f20527f1dd269799b660fad58f7f4892dfb0b5afeaad869a9c4b44f9c9e1c43bdaf8f09610f40527f22cdbc8b70117ad1401181d02e15459e7ccd426fe869c7c95d1dd2cb0f24af38610f60527f0ef042e454771c533a9f57a55c503fcefd3150f52ed94a7cd5ba93b9c7dacefd610f80527f11609e06ad6c8fe2f287f3036037e8851318e8b08a0359a03b304ffca62e8284610fa0527f1166d9e554616dba9e753eea427c17b7fecd58c076dfe42708b08f5b783aa9af610fc0527f2de52989431a859593413026354413db177fbf4cd2ac0b56f855a888357ee466610fe0527f3006eb4ffc7a85819a6da492f3a8ac1df51aee5b17b8e89d74bf01cf5f71e9ad611000527f2af41fbb61ba8a80fdcf6fff9e3f6f422993fe8f0a4639f962344c8225145086611020527f119e684de476155fe5a6b41a8ebc85db8718ab27889e85e781b214bace4827c3611040527f1835b786e2e8925e188bea59ae363537b51248c23828f047cff784b97b3fd800611060527f28201a34c594dfa34d794996c6433a20d152bac2a7905c926c40e285ab32eeb6611080527f083efd7a27d1751094e80fefaf78b000864c82eb571187724a761f88c22cc4e76110a0527f0b6f88a3577199526158e61ceea27be811c16df7774dd8519e079564f61fd13b6110c0527f0ec868e6d15e51d9644f66e1d6471a94589511ca00d29e1014390e6ee4254f5b6110e0527f2af33e3f866771271ac0c9b3ed2e1142ecd3e74b939cd40d00d937ab84c98591611100527f0b520211f904b5e7d09b5d961c6ace7734568c547dd6858b364ce5e47951f178611120527f0b2d722d0919a1aad8db58f10062a92ea0c56ac4270e822cca228620188a1d40611140527f1f790d4d7f8cf094d980ceb37c2453e957b54a9991ca38bbe0061d1ed6e562d4611160527f0171eb95dfbf7d1eaea97cd385f780150885c16235a2a6a8da92ceb01e504233611180527f0c2d0e3b5fd57549329bf6885da66b9b790b40defd2c8650762305381b1688736111a0527f1162fb28689c27154e5a8228b4e72b377cbcafa589e283c35d3803054407a18d6111c0527f2f1459b65dee441b64ad386a91e8310f282c5a92a89e19921623ef8249711bc06111e0527f1e6ff3216b688c3d996d74367d5cd4c1bc489d46754eb712c243f70d1b53cfbb611200527f01ca8be73832b8d0681487d27d157802d741a6f36cdc2a0576881f9326478875611220527f1f7735706ffe9fc586f976d5bdf223dc680286080b10cea00b9b5de315f9650e611240527f2522b60f4ea3307640a0c2dce041fba921ac10a3d5f096ef4745ca838285f019611260527f23f0bee001b1029d5255075ddc957f833418cad4f52b6c3f8ce16c235572575b611280527f2bc1ae8b8ddbb81fcaac2d44555ed5685d142633e9df905f66d9401093082d596112a0527f0f9406b8296564a37304507b8dba3ed162371273a07b1fc98011fcd6ad72205f6112c0527f2360a8eb0cc7defa67b72998de90714e17e75b174a52ee4acb126c8cd995f0a86112e0527f15871a5cddead976804c803cbaef255eb4815a5e96df8b006dcbbc2767f88948611300527f193a56766998ee9e0a8652dd2f3b1da0362f4f54f72379544f957ccdeefb420f611320527f2a394a43934f86982f9be56ff4fab1703b2e63c8ad334834e4309805e777ae0f611340527f1859954cfeb8695f3e8b635dcb345192892cd11223443ba7b4166e8876c0d142611360527f04e1181763050e58013444dbcb99f1902b11bc25d90bbdca408d3819f4fed32b611380527f0fdb253dee83869d40c335ea64de8c5bb10eb82db08b5e8b1f5e5552bfd05f236113a0527f058cbe8a9a5027bdaa4efb623adead6275f08686f1c08984a9d7c5bae9b4f1c06113c0527f1382edce9971e186497eadb1aeb1f52b23b4b83bef023ab0d15228b4cceca59a6113e0527f03464990f045c6ee0819ca51fd11b0be7f61b8eb99f14b77e1e6634601d9e8b5611400527f23f7bfc8720dc296fff33b41f98ff83c6fcab4605db2eb5aaa5bc137aeb70a58611420527f0a59a158e3eec2117e6e94e7f0e9decf18c3ffd5e1531a9219636158bbaf62f2611440527f06ec54c80381c052b58bf23b312ffd3ce2c4eba065420af8f4c23ed0075fd07b611460527f118872dc832e0eb5476b56648e867ec8b09340f7a7bcb1b4962f0ff9ed1f9d01611480527f13d69fa127d834165ad5c7cba7ad59ed52e0b0f0e42d7fea95e1906b520921b16114a0527f169a177f63ea681270b1c6877a73d21bde143942fb71dc55fd8a49f19f10c77b6114c0527f04ef51591c6ead97ef42f287adce40d93abeb032b922f66ffb7e9a5a7450544d6114e0527f256e175a1dc079390ecd7ca703fb2e3b19ec61805d4f03ced5f45ee6dd0f69ec611500527f30102d28636abd5fe5f2af412ff6004f75cc360d3205dd2da002813d3e2ceeb2611520527f10998e42dfcd3bbf1c0714bc73eb1bf40443a3fa99bef4a31fd31be182fcc792611540527f193edd8e9fcf3d7625fa7d24b598a1d89f3362eaf4d582efecad76f879e36860611560527f18168afd34f2d915d0368ce80b7b3347d1c7a561ce611425f2664d7aa51f0b5d611580527f29383c01ebd3b6ab0c017656ebe658b6a328ec77bc33626e29e2e95b33ea61116115a0527f10646d2f2603de39a1f4ae5e7771a64a702db6e86fb76ab600bf573f9010c7116115c0527f0beb5e07d1b27145f575f1395a55bf132f90c25b40da7b3864d0242dcb1117fb6115e0527f16d685252078c133dc0d3ecad62b5c8830f95bb2e54b59abdffbf018d96fa336611600527f0a6abd1d833938f33c74154e0404b4b40a555bbbec21ddfafd672dd62047f01a611620527f1a679f5d36eb7b5c8ea12a4c2dedc8feb12dffeec450317270a6f19b34cf1860611640527f0980fb233bd456c23974d50e0ebfde4726a423eada4e8f6ffbc7592e3f1b93d6611660527f161b42232e61b84cbf1810af93a38fc0cece3d5628c9282003ebacb5c312c72b611680527f0ada10a90c7f0520950f7d47a60d5e6a493f09787f1564e5d09203db47de1a0b6116a0527f1a730d372310ba82320345a29ac4238ed3f07a8a2b4e121bb50ddb9af407f4516116c0527f2c8120f268ef054f817064c369dda7ea908377feaba5c4dffbda10ef58e8c5566116e0527f1c7c8824f758753fa57c00789c684217b930e95313bcb73e6e7b8649a4968f70611700527f2cd9ed31f5f8691c8e39e4077a74faa0f400ad8b491eb3f7b47b27fa3fd1cf77611720527f23ff4f9d46813457cf60d92f57618399a5e022ac321ca550854ae23918a22eea611740527f09945a5d147a4f66ceece6405dddd9d0af5a2c5103529407dff1ea58f180426d611760527f188d9c528025d4c2b67660c6b771b90f7c7da6eaa29d3f268a6dd223ec6fc630611780527f3050e37996596b7f81f68311431d8734dba7d926d3633595e0c0d8ddf4f0f47f6117a0527f15af1169396830a91600ca8102c35c426ceae5461e3f95d89d829518d30afd786117c0527f1da6d09885432ea9a06d9f37f873d985dae933e351466b2904284da3320d8acc6117e0527f2796ea90d269af29f5f8acf33921124e4e4fad3dbe658945e546ee411ddaa9cb611800527f202d7dd1da0f6b4b0325c8b3307742f01e15612ec8e9304a7cb0319e01d32d60611820527f096d6790d05bb759156a952ba263d672a2d7f9c788f4c831a29dace4c0f8be5f611840527f054efa1f65b0fce283808965275d877b438da23ce5b13e1963798cb1447d25a4611860527f1b162f83d917e93edb3308c29802deb9d8aa690113b2e14864ccf6e18e4165f1611880527f21e5241e12564dd6fd9f1cdd2a0de39eedfefc1466cc568ec5ceb745a0506edc6118a0527f1cfb5662e8cf5ac9226a80ee17b36abecb73ab5f87e161927b4349e10e4bdf086118c0527f0f21177e302a771bbae6d8d1ecb373b62c99af346220ac0129c53f666eb241006118e0527f1671522374606992affb0dd7f71b12bec4236aede6290546bcef7e1f515c2320611900527f0fa3ec5b9488259c2eb4cf24501bfad9be2ec9e42c5cc8ccd419d2a692cad870611920527f193c0e04e0bd298357cb266c1506080ed36edce85c648cc085e8c57b1ab54bba611940527f102adf8ef74735a27e9128306dcbc3c99f6f7291cd406578ce14ea2adaba68f8611960527f0fe0af7858e49859e2a54d6f1ad945b1316aa24bfbdd23ae40a6d0cb70c3eab1611980527f216f6717bbc7dedb08536a2220843f4e2da5f1daa9ebdefde8a5ea7344798d226119a0527f1da55cc900f0d21f4a3e694391918a1b3c23b2ac773c6b3ef88e2e42283251616119c05260036101806009c2c309010c01090103c50f000900090001c50f000f000f0001c5090009000f0001c50f000a000a0001c50f000f000f0001c50a000a000f0001c50f000b000b0001c50f000f000f0001c50b000b000f0001c50c010901000103c30c000c000d0001c30c000c000e0001c50d010901030103c30d000d000e0001c30d000d000f0001c50e010901060103c30e000e000f0001c30e000e0010000160036101e06009c2c309010c01090103c50f000900090001c50f000f000f0001c5090009000f0001c50f000a000a0001c50f000f000f0001c50a000a000f0001c50f000b000b0001c50f000f000f0001c50b000b000f0001c50c010901000103c30c000c000d0001c30c000c000e0001c50d010901030103c30d000d000e0001c30d000d000f0001c50e010901060103c30e000e000f0001c30e000e0010000160036102406009c2c309010c01090103c50f000900090001c50f000f000f0001c5090009000f0001c50f000a000a0001c50f000f000f0001c50a000a000f0001c50f000b000b0001c50f000f000f0001c50b000b000f0001c50c010901000103c30c000c000d0001c30c000c000e0001c50d010901030103c30d000d000e0001c30d000d000f0001c50e010901060103c30e000e000f0001c30e000e0010000160036102a06009c2c309010c01090103c50f000900090001c50f000f000f0001c5090009000f0001c50f000a000a0001c50f000f000f0001c50a000a000f0001c50f000b000b0001c50f000f000f0001c50b000b000f0001c50c010901000103c30c000c000d0001c30c000c000e0001c50d010901030103c30d000d000e0001c30d000d000f0001c50e010901060103c30e000e000f0001c30e000e0010000160036103006009c2c309010c01090103c50f000900090001c50f000f000f0001c5090009000f0001c50c010901000103c30c000c000d0001c30c000c000e0001c50d010901030103c30d000d000e0001c30d000d000f0001c50e010901060103c30e000e000f0001c30e000e0010000160036103606009c2c309010c01090103c50f000900090001c50f000f000f0001c5090009000f0001c50c010901000103c30c000c000d0001c30c000c000e0001c50d010901030103c30d000d000e0001c30d000d000f0001c50e010901060103c30e000e000f0001c30e000e0010000160036103c06009c2c309010c01090103c50f000900090001c50f000f000f0001c5090009000f0001c50c010901000103c30c000c000d0001c30c000c000e0001c50d010901030103c30d000d000e0001c30d000d000f0001c50e010901060103c30e000e000f0001c30e000e0010000160036104206009c2c309010c01090103c50f000900090001c50f000f000f0001c5090009000f0001c50c010901000103c30c000c000d0001c30c000c000e0001c50d010901030103c30d000d000e0001c30d000d000f0001c50e010901060103c30e000e000f0001c30e000e0010000160036104806009c2c309010c01090103c50f000900090001c50f000f000f0001c5090009000f0001c50c010901000103c30c000c000d0001c30c000c000e0001c50d010901030103c30d000d000e0001c30d000d000f0001c50e010901060103c30e000e000f0001c30e000e0010000160036104e06009c2c309010c01090103c50f000900090001c50f000f000f0001c5090009000f0001c50c010901000103c30c000c000d0001c30c000c000e0001c50d010901030103c30d000d000e0001c30d000d000f0001c50e010901060103c30e000e000f0001c30e000e0010000160036105406009c2c309010c01090103c50f000900090001c50f000f000f0001c5090009000f0001c50c010901000103c30c000c000d0001c30c000c000e0001c50d010901030103c30d000d000e0001c30d000d000f0001c50e010901060103c30e000e000f0001c30e000e0010000160036105a06009c2c309010c01090103c50f000900090001c50f000f000f0001c5090009000f0001c50c010901000103c30c000c000d0001c30c000c000e0001c50d010901030103c30d000d000e0001c30d000d000f0001c50e010901060103c30e000e000f0001c30e000e0010000160036106006009c2c309010c01090103c50f000900090001c50f000f000f0001c5090009000f0001c50c010901000103c30c000c000d0001c30c000c000e0001c50d010901030103c30d000d000e0001c30d000d000f0001c50e010901060103c30e000e000f0001c30e000e0010000160036106606009c2c309010c01090103c50f000900090001c50f000f000f0001c5090009000f0001c50c010901000103c30c000c000d0001c30c000c000e0001c50d010901030103c30d000d000e0001c30d000d000f0001c50e010901060103c30e000e000f0001c30e000e0010000160036106c06009c2c309010c01090103c50f000900090001c50f000f000f0001c5090009000f0001c50c010901000103c30c000c000d0001c30c000c000e0001c50d010901030103c30d000d000e0001c30d000d000f0001c50e010901060103c30e000e000f0001c30e000e0010000160036107206009c2c309010c01090103c50f000900090001c50f000f000f0001c5090009000f0001c50c010901000103c30c000c000d0001c30c000c000e0001c50d010901030103c30d000d000e0001c30d000d000f0001c50e010901060103c30e000e000f0001c30e000e0010000160036107806009c2c309010c01090103c50f000900090001c50f000f000f0001c5090009000f0001c50c010901000103c30c000c000d0001c30c000c000e0001c50d010901030103c30d000d000e0001c30d000d000f0001c50e010901060103c30e000e000f0001c30e000e0010000160036107e06009c2c309010c01090103c50f000900090001c50f000f000f0001c5090009000f0001c50c010901000103c30c000c000d0001c30c000c000e0001c50d010901030103c30d000d000e0001c30d000d000f0001c50e010901060103c30e000e000f0001c30e000e0010000160036108406009c2c309010c01090103c50f000900090001c50f000f000f0001c5090009000f0001c50c010901000103c30c000c000d0001c30c000c000e0001c50d010901030103c30d000d000e0001c30d000d000f0001c50e010901060103c30e000e000f0001c30e000e0010000160036108a06009c2c309010c01090103c50f000900090001c50f000f000f0001c5090009000f0001c50c010901000103c30c000c000d0001c30c000c000e0001c50d010901030103c30d000d000e0001c30d000d000f0001c50e010901060103c30e000e000f0001c30e000e0010000160036109006009c2c309010c01090103c50f000900090001c50f000f000f0001c5090009000f0001c50c010901000103c30c000c000d0001c30c000c000e0001c50d010901030103c30d000d000e0001c30d000d000f0001c50e010901060103c30e000e000f0001c30e000e0010000160036109606009c2c309010c01090103c50f000900090001c50f000f000f0001c5090009000f0001c50c010901000103c30c000c000d0001c30c000c000e0001c50d010901030103c30d000d000e0001c30d000d000f0001c50e010901060103c30e000e000f0001c30e000e0010000160036109c06009c2c309010c01090103c50f000900090001c50f000f000f0001c5090009000f0001c50c010901000103c30c000c000d0001c30c000c000e0001c50d010901030103c30d000d000e0001c30d000d000f0001c50e010901060103c30e000e000f0001c30e000e001000016003610a206009c2c309010c01090103c50f000900090001c50f000f000f0001c5090009000f0001c50c010901000103c30c000c000d0001c30c000c000e0001c50d010901030103c30d000d000e0001c30d000d000f0001c50e010901060103c30e000e000f0001c30e000e001000016003610a806009c2c309010c01090103c50f000900090001c50f000f000f0001c5090009000f0001c50c010901000103c30c000c000d0001c30c000c000e0001c50d010901030103c30d000d000e0001c30d000d000f0001c50e010901060103c30e000e000f0001c30e000e001000016003610ae06009c2c309010c01090103c50f000900090001c50f000f000f0001c5090009000f0001c50c010901000103c30c000c000d0001c30c000c000e0001c50d010901030103c30d000d000e0001c30d000d000f0001c50e010901060103c30e000e000f0001c30e000e001000016003610b406009c2c309010c01090103c50f000900090001c50f000f000f0001c5090009000f0001c50c010901000103c30c000c000d0001c30c000c000e0001c50d010901030103c30d000d000e0001c30d000d000f0001c50e010901060103c30e000e000f0001c30e000e001000016003610ba06009c2c309010c01090103c50f000900090001c50f000f000f0001c5090009000f0001c50c010901000103c30c000c000d0001c30c000c000e0001c50d010901030103c30d000d000e0001c30d000d000f0001c50e010901060103c30e000e000f0001c30e000e001000016003610c006009c2c309010c01090103c50f000900090001c50f000f000f0001c5090009000f0001c50c010901000103c30c000c000d0001c30c000c000e0001c50d010901030103c30d000d000e0001c30d000d000f0001c50e010901060103c30e000e000f0001c30e000e001000016003610c606009c2c309010c01090103c50f000900090001c50f000f000f0001c5090009000f0001c50c010901000103c30c000c000d0001c30c000c000e0001c50d010901030103c30d000d000e0001c30d000d000f0001c50e010901060103c30e000e000f0001c30e000e001000016003610cc06009c2c309010c01090103c50f000900090001c50f000f000f0001c5090009000f0001c50c010901000103c30c000c000d0001c30c000c000e0001c50d010901030103c30d000d000e0001c30d000d000f0001c50e010901060103c30e000e000f0001c30e000e001000016003610d206009c2c309010c01090103c50f000900090001c50f000f000f0001c5090009000f0001c50c010901000103c30c000c000d0001c30c000c000e0001c50d010901030103c30d000d000e0001c30d000d000f0001c50e010901060103c30e000e000f0001c30e000e001000016003610d806009c2c309010c01090103c50f000900090001c50f000f000f0001c5090009000f0001c50c010901000103c30c000c000d0001c30c000c000e0001c50d010901030103c30d000d000e0001c30d000d000f0001c50e010901060103c30e000e000f0001c30e000e001000016003610de06009c2c309010c01090103c50f000900090001c50f000f000f0001c5090009000f0001c50c010901000103c30c000c000d0001c30c000c000e0001c50d010901030103c30d000d000e0001c30d000d000f0001c50e010901060103c30e000e000f0001c30e000e001000016003610e406009c2c309010c01090103c50f000900090001c50f000f000f0001c5090009000f0001c50c010901000103c30c000c000d0001c30c000c000e0001c50d010901030103c30d000d000e0001c30d000d000f0001c50e010901060103c30e000e000f0001c30e000e001000016003610ea06009c2c309010c01090103c50f000900090001c50f000f000f0001c5090009000f0001c50c010901000103c30c000c000d0001c30c000c000e0001c50d010901030103c30d000d000e0001c30d000d000f0001c50e010901060103c30e000e000f0001c30e000e001000016003610f006009c2c309010c01090103c50f000900090001c50f000f000f0001c5090009000f0001c50c010901000103c30c000c000d0001c30c000c000e0001c50d010901030103c30d000d000e0001c30d000d000f0001c50e010901060103c30e000e000f0001c30e000e001000016003610f606009c2c309010c01090103c50f000900090001c50f000f000f0001c5090009000f0001c50c010901000103c30c000c000d0001c30c000c000e0001c50d010901030103c30d000d000e0001c30d000d000f0001c50e010901060103c30e000e000f0001c30e000e001000016003610fc06009c2c309010c01090103c50f000900090001c50f000f000f0001c5090009000f0001c50c010901000103c30c000c000d0001c30c000c000e0001c50d010901030103c30d000d000e0001c30d000d000f0001c50e010901060103c30e000e000f0001c30e000e0010000160036110206009c2c309010c01090103c50f000900090001c50f000f000f0001c5090009000f0001c50c010901000103c30c000c000d0001c30c000c000e0001c50d010901030103c30d000d000e0001c30d000d000f0001c50e010901060103c30e000e000f0001c30e000e0010000160036110806009c2c309010c01090103c50f000900090001c50f000f000f0001c5090009000f0001c50c010901000103c30c000c000d0001c30c000c000e0001c50d010901030103c30d000d000e0001c30d000d000f0001c50e010901060103c30e000e000f0001c30e000e0010000160036110e06009c2c309010c01090103c50f000900090001c50f000f000f0001c5090009000f0001c50c010901000103c30c000c000d0001c30c000c000e0001c50d010901030103c30d000d000e0001c30d000d000f0001c50e010901060103c30e000e000f0001c30e000e0010000160036111406009c2c309010c01090103c50f000900090001c50f000f000f0001c5090009000f0001c50c010901000103c30c000c000d0001c30c000c000e0001c50d010901030103c30d000d000e0001c30d000d000f0001c50e010901060103c30e000e000f0001c30e000e0010000160036111a06009c2c309010c01090103c50f000900090001c50f000f000f0001c5090009000f0001c50c010901000103c30c000c000d0001c30c000c000e0001c50d010901030103c30d000d000e0001c30d000d000f0001c50e010901060103c30e000e000f0001c30e000e0010000160036112006009c2c309010c01090103c50f000900090001c50f000f000f0001c5090009000f0001c50c010901000103c30c000c000d0001c30c000c000e0001c50d010901030103c30d000d000e0001c30d000d000f0001c50e010901060103c30e000e000f0001c30e000e0010000160036112606009c2c309010c01090103c50f000900090001c50f000f000f0001c5090009000f0001c50c010901000103c30c000c000d0001c30c000c000e0001c50d010901030103c30d000d000e0001c30d000d000f0001c50e010901060103c30e000e000f0001c30e000e0010000160036112c06009c2c309010c01090103c50f000900090001c50f000f000f0001c5090009000f0001c50c010901000103c30c000c000d0001c30c000c000e0001c50d010901030103c30d000d000e0001c30d000d000f0001c50e010901060103c30e000e000f0001c30e000e0010000160036113206009c2c309010c01090103c50f000900090001c50f000f000f0001c5090009000f0001c50c010901000103c30c000c000d0001c30c000c000e0001c50d010901030103c30d000d000e0001c30d000d000f0001c50e010901060103c30e000e000f0001c30e000e0010000160036113806009c2c309010c01090103c50f000900090001c50f000f000f0001c5090009000f0001c50c010901000103c30c000c000d0001c30c000c000e0001c50d010901030103c30d000d000e0001c30d000d000f0001c50e010901060103c30e000e000f0001c30e000e0010000160036113e06009c2c309010c01090103c50f000900090001c50f000f000f0001c5090009000f0001c50c010901000103c30c000c000d0001c30c000c000e0001c50d010901030103c30d000d000e0001c30d000d000f0001c50e010901060103c30e000e000f0001c30e000e0010000160036114406009c2c309010c01090103c50f000900090001c50f000f000f0001c5090009000f0001c50c010901000103c30c000c000d0001c30c000c000e0001c50d010901030103c30d000d000e0001c30d000d000f0001c50e010901060103c30e000e000f0001c30e000e0010000160036114a06009c2c309010c01090103c50f000900090001c50f000f000f0001c5090009000f0001c50c010901000103c30c000c000d0001c30c000c000e0001c50d010901030103c30d000d000e0001c30d000d000f0001c50e010901060103c30e000e000f0001c30e000e0010000160036115006009c2c309010c01090103c50f000900090001c50f000f000f0001c5090009000f0001c50c010901000103c30c000c000d0001c30c000c000e0001c50d010901030103c30d000d000e0001c30d000d000f0001c50e010901060103c30e000e000f0001c30e000e0010000160036115606009c2c309010c01090103c50f000900090001c50f000f000f0001c5090009000f0001c50c010901000103c30c000c000d0001c30c000c000e0001c50d010901030103c30d000d000e0001c30d000d000f0001c50e010901060103c30e000e000f0001c30e000e0010000160036115c06009c2c309010c01090103c50f000900090001c50f000f000f0001c5090009000f0001c50c010901000103c30c000c000d0001c30c000c000e0001c50d010901030103c30d000d000e0001c30d000d000f0001c50e010901060103c30e000e000f0001c30e000e0010000160036116206009c2c309010c01090103c50f000900090001c50f000f000f0001c5090009000f0001c50c010901000103c30c000c000d0001c30c000c000e0001c50d010901030103c30d000d000e0001c30d000d000f0001c50e010901060103c30e000e000f0001c30e000e0010000160036116806009c2c309010c01090103c50f000900090001c50f000f000f0001c5090009000f0001c50c010901000103c30c000c000d0001c30c000c000e0001c50d010901030103c30d000d000e0001c30d000d000f0001c50e010901060103c30e000e000f0001c30e000e0010000160036116e06009c2c309010c01090103c50f000900090001c50f000f000f0001c5090009000f0001c50c010901000103c30c000c000d0001c30c000c000e0001c50d010901030103c30d000d000e0001c30d000d000f0001c50e010901060103c30e000e000f0001c30e000e0010000160036117406009c2c309010c01090103c50f000900090001c50f000f000f0001c5090009000f0001c50c010901000103c30c000c000d0001c30c000c000e0001c50d010901030103c30d000d000e0001c30d000d000f0001c50e010901060103c30e000e000f0001c30e000e0010000160036117a06009c2c309010c01090103c50f000900090001c50f000f000f0001c5090009000f0001c50c010901000103c30c000c000d0001c30c000c000e0001c50d010901030103c30d000d000e0001c30d000d000f0001c50e010901060103c30e000e000f0001c30e000e0010000160036118006009c2c309010c01090103c50f000900090001c50f000f000f0001c5090009000f0001c50c010901000103c30c000c000d0001c30c000c000e0001c50d010901030103c30d000d000e0001c30d000d000f0001c50e010901060103c30e000e000f0001c30e000e0010000160036118606009c2c309010c01090103c50f000900090001c50f000f000f0001c5090009000f0001c50f000a000a0001c50f000f000f0001c50a000a000f0001c50f000b000b0001c50f000f000f0001c50b000b000f0001c50c010901000103c30c000c000d0001c30c000c000e0001c50d010901030103c30d000d000e0001c30d000d000f0001c50e010901060103c30e000e000f0001c30e000e0010000160036118c06009c2c309010c01090103c50f000900090001c50f000f000f0001c5090009000f0001c50f000a000a0001c50f000f000f0001c50a000a000f0001c50f000b000b0001c50f000f000f0001c50b000b000f0001c50c010901000103c30c000c000d0001c30c000c000e0001c50d010901030103c30d000d000e0001c30d000d000f0001c50e010901060103c30e000e000f0001c30e000e0010000160036119206009c2c309010c01090103c50f000900090001c50f000f000f0001c5090009000f0001c50f000a000a0001c50f000f000f0001c50a000a000f0001c50f000b000b0001c50f000f000f0001c50b000b000f0001c50c010901000103c30c000c000d0001c30c000c000e0001c50d010901030103c30d000d000e0001c30d000d000f0001c50e010901060103c30e000e000f0001c30e000e0010000160036119806009c2c309010c01090103c50f000900090001c50f000f000f0001c5090009000f0001c50f000a000a0001c50f000f000f0001c50a000a000f0001c50f000b000b0001c50f000f000f0001c50b000b000f0001c50c010901000103c30c000c000d0001c30c000c000e0001c50d010901030103c30d000d000e0001c30d000d000f0001c50e010901060103c30e000e000f0001c30e000e001000016001600c6000c160206000f3",
                "nonce" : "0x00",
                "storage" : {
                }
            }
        },
        "transaction" : {
            "data" : [
                "0x00000000000000000000000000000000000000000000000000000000000000020000000000000000000000000000000000000000000000000000000000000001"
            ],
            "gasLimit" : [
                "0x3b9aca00"
            ],
            "gasPrice" : "0x01",
            "nonce" : "0x00",
            "secretKey" : "0x45a915e4d060149eb4365960e6a7a45f334393093061116b197e3240065ff2d8",
            "sender" : "0xa94f5374fce5edbc8e2a8697c15331677e6ebf0b",
            "to" : "0xbe7c43a580000000000000000000000000000001",
            "value" : [
                "0x00"
            ]
        }
    }
}